{
  "_format": "hh-sol-artifact-1",
  "contractName": "SpaceLottoSimple",
  "sourceName": "contracts/SpaceLottoSimple.sol",
  "abi": [
    {
      "inputs": [
        {
          "internalType": "address",
          "name": "_usdtAddress",
          "type": "address"
        },
        {
          "internalType": "address",
          "name": "_devWallet",
          "type": "address"
        },
        {
          "internalType": "address",
          "name": "_reserveWallet",
          "type": "address"
        }
      ],
      "stateMutability": "nonpayable",
      "type": "constructor"
    },
    {
      "anonymous": false,
      "inputs": [
        {
          "indexed": true,
          "internalType": "address",
          "name": "previousOwner",
          "type": "address"
        },
        {
          "indexed": true,
          "internalType": "address",
          "name": "newOwner",
          "type": "address"
        }
      ],
      "name": "OwnershipTransferred",
      "type": "event"
    },
    {
      "anonymous": false,
      "inputs": [
        {
          "indexed": true,
          "internalType": "address",
          "name": "winner",
          "type": "address"
        },
        {
          "indexed": false,
          "internalType": "uint256",
          "name": "amount",
          "type": "uint256"
        }
      ],
      "name": "PrizeClaimed",
      "type": "event"
    },
    {
      "anonymous": false,
      "inputs": [
        {
          "indexed": true,
          "internalType": "address",
          "name": "player",
          "type": "address"
        },
        {
          "indexed": false,
          "internalType": "uint256",
          "name": "roundId",
          "type": "uint256"
        },
        {
          "indexed": false,
          "internalType": "uint256",
          "name": "chosenNumber",
          "type": "uint256"
        }
      ],
      "name": "TicketBought",
      "type": "event"
    },
    {
      "anonymous": false,
      "inputs": [
        {
          "indexed": false,
          "internalType": "uint256",
          "name": "roundId",
          "type": "uint256"
        },
        {
          "indexed": false,
          "internalType": "uint256",
          "name": "winningNumber",
          "type": "uint256"
        },
        {
          "indexed": false,
          "internalType": "uint256",
          "name": "winnerCount",
          "type": "uint256"
        },
        {
          "indexed": false,
          "internalType": "uint256",
          "name": "prizePerWinner",
          "type": "uint256"
        }
      ],
      "name": "WinnerDrawn",
      "type": "event"
    },
    {
      "inputs": [],
      "name": "TICKET_PRICE",
      "outputs": [
        {
          "internalType": "uint256",
          "name": "",
          "type": "uint256"
        }
      ],
      "stateMutability": "view",
      "type": "function"
    },
    {
      "inputs": [
        {
          "internalType": "uint256",
          "name": "_chosenNumber",
          "type": "uint256"
        }
      ],
      "name": "buyTicket",
      "outputs": [],
      "stateMutability": "nonpayable",
      "type": "function"
    },
    {
      "inputs": [
        {
          "internalType": "uint256",
          "name": "_roundId",
          "type": "uint256"
        }
      ],
      "name": "claimPrize",
      "outputs": [],
      "stateMutability": "nonpayable",
      "type": "function"
    },
    {
      "inputs": [],
      "name": "currentRoundId",
      "outputs": [
        {
          "internalType": "uint256",
          "name": "",
          "type": "uint256"
        }
      ],
      "stateMutability": "view",
      "type": "function"
    },
    {
      "inputs": [],
      "name": "devWallet",
      "outputs": [
        {
          "internalType": "address",
          "name": "",
          "type": "address"
        }
      ],
      "stateMutability": "view",
      "type": "function"
    },
    {
      "inputs": [
        {
          "internalType": "uint256",
          "name": "_winningNumber",
          "type": "uint256"
        }
      ],
      "name": "drawWinner",
      "outputs": [],
      "stateMutability": "nonpayable",
      "type": "function"
    },
    {
      "inputs": [
        {
          "internalType": "uint256",
          "name": "_roundId",
          "type": "uint256"
        },
        {
          "internalType": "address",
          "name": "_user",
          "type": "address"
        }
      ],
      "name": "getUserTickets",
      "outputs": [
        {
          "internalType": "uint256[]",
          "name": "",
          "type": "uint256[]"
        }
      ],
      "stateMutability": "view",
      "type": "function"
    },
    {
      "inputs": [
        {
          "internalType": "uint256",
          "name": "",
          "type": "uint256"
        },
        {
          "internalType": "address",
          "name": "",
          "type": "address"
        }
      ],
      "name": "hasClaimed",
      "outputs": [
        {
          "internalType": "bool",
          "name": "",
          "type": "bool"
        }
      ],
      "stateMutability": "view",
      "type": "function"
    },
    {
      "inputs": [],
      "name": "owner",
      "outputs": [
        {
          "internalType": "address",
          "name": "",
          "type": "address"
        }
      ],
      "stateMutability": "view",
      "type": "function"
    },
    {
      "inputs": [],
      "name": "renounceOwnership",
      "outputs": [],
      "stateMutability": "nonpayable",
      "type": "function"
    },
    {
      "inputs": [],
      "name": "reserveWallet",
      "outputs": [
        {
          "internalType": "address",
          "name": "",
          "type": "address"
        }
      ],
      "stateMutability": "view",
      "type": "function"
    },
    {
      "inputs": [
        {
          "internalType": "uint256",
          "name": "",
          "type": "uint256"
        }
      ],
      "name": "rounds",
      "outputs": [
        {
          "internalType": "uint256",
          "name": "id",
          "type": "uint256"
        },
        {
          "internalType": "uint256",
          "name": "prizePool",
          "type": "uint256"
        },
        {
          "internalType": "uint256",
          "name": "winningNumber",
          "type": "uint256"
        },
        {
          "internalType": "bool",
          "name": "isDrawn",
          "type": "bool"
        }
      ],
      "stateMutability": "view",
      "type": "function"
    },
    {
      "inputs": [
        {
          "internalType": "uint256",
          "name": "",
          "type": "uint256"
        },
        {
          "internalType": "uint256",
          "name": "",
          "type": "uint256"
        },
        {
          "internalType": "uint256",
          "name": "",
          "type": "uint256"
        }
      ],
      "name": "tickets",
      "outputs": [
        {
          "internalType": "address",
          "name": "",
          "type": "address"
        }
      ],
      "stateMutability": "view",
      "type": "function"
    },
    {
      "inputs": [
        {
          "internalType": "address",
          "name": "newOwner",
          "type": "address"
        }
      ],
      "name": "transferOwnership",
      "outputs": [],
      "stateMutability": "nonpayable",
      "type": "function"
    },
    {
      "inputs": [],
      "name": "usdtToken",
      "outputs": [
        {
          "internalType": "contract IERC20",
          "name": "",
          "type": "address"
        }
      ],
      "stateMutability": "view",
      "type": "function"
    },
    {
      "inputs": [
        {
          "internalType": "uint256",
          "name": "",
          "type": "uint256"
        },
        {
          "internalType": "address",
          "name": "",
          "type": "address"
        },
        {
          "internalType": "uint256",
          "name": "",
          "type": "uint256"
        }
      ],
      "name": "userTickets",
      "outputs": [
        {
          "internalType": "uint256",
          "name": "",
          "type": "uint256"
        }
      ],
      "stateMutability": "view",
      "type": "function"
    }
  ],
  "bytecode": "0x60806040523480156200001157600080fd5b506040516200212938038062002129833981810160405281019062000037919062000286565b620000576200004b6200015060201b60201c565b6200015860201b60201c565b6001808190555082600260006101000a81548173ffffffffffffffffffffffffffffffffffffffff021916908373ffffffffffffffffffffffffffffffffffffffff16021790555081600360006101000a81548173ffffffffffffffffffffffffffffffffffffffff021916908373ffffffffffffffffffffffffffffffffffffffff16021790555080600460006101000a81548173ffffffffffffffffffffffffffffffffffffffff021916908373ffffffffffffffffffffffffffffffffffffffff1602179055506001600581905550600160066000600554815260200190815260200160002060000181905550505050620002e2565b600033905090565b60008060009054906101000a900473ffffffffffffffffffffffffffffffffffffffff169050816000806101000a81548173ffffffffffffffffffffffffffffffffffffffff021916908373ffffffffffffffffffffffffffffffffffffffff1602179055508173ffffffffffffffffffffffffffffffffffffffff168173ffffffffffffffffffffffffffffffffffffffff167f8be0079c531659141344cd1fd0a4f28419497f9722a3daafe3b4186f6b6457e060405160405180910390a35050565b600080fd5b600073ffffffffffffffffffffffffffffffffffffffff82169050919050565b60006200024e8262000221565b9050919050565b620002608162000241565b81146200026c57600080fd5b50565b600081519050620002808162000255565b92915050565b600080600060608486031215620002a257620002a16200021c565b5b6000620002b2868287016200026f565b9350506020620002c5868287016200026f565b9250506040620002d8868287016200026f565b9150509250925092565b611e3780620002f26000396000f3fe608060405234801561001057600080fd5b50600436106101005760003560e01c80638ea5220f11610097578063d709815411610066578063d7098154146102a0578063d72b11bd146102bc578063e7a7f65c146102da578063f2fde38b1461030a57610100565b80638ea5220f146102165780639cbe5efd14610234578063a98ad46c14610252578063b858bb651461027057610100565b806373c690b3116100d357806373c690b314610165578063873f6f9e146101955780638c65c81f146101c55780638da5cb5b146101f857610100565b80631a95f15f1461010557806360b2a56a1461012357806367dd74ca1461013f578063715018a61461015b575b600080fd5b61010d610326565b60405161011a91906112d2565b60405180910390f35b61013d6004803603810190610138919061131e565b610332565b005b6101596004803603810190610154919061131e565b610503565b005b6101636109ce565b005b61017f600480360381019061017a919061134b565b6109e2565b60405161018c91906113df565b60405180910390f35b6101af60048036038101906101aa9190611426565b610a3d565b6040516101bc9190611481565b60405180910390f35b6101df60048036038101906101da919061131e565b610a6c565b6040516101ef949392919061149c565b60405180910390f35b610200610aa9565b60405161020d91906113df565b60405180910390f35b61021e610ad2565b60405161022b91906113df565b60405180910390f35b61023c610af8565b60405161024991906112d2565b60405180910390f35b61025a610afe565b6040516102679190611540565b60405180910390f35b61028a6004803603810190610285919061155b565b610b24565b60405161029791906112d2565b60405180910390f35b6102ba60048036038101906102b5919061131e565b610b62565b005b6102c4610fc5565b6040516102d191906113df565b60405180910390f35b6102f460048036038101906102ef9190611426565b610feb565b604051610301919061166c565b60405180910390f35b610324600480360381019061031f919061168e565b611094565b005b674563918244f4000081565b61033a611117565b60066000600554815260200190815260200160002060030160009054906101000a900460ff16156103a0576040517f08c379a000000000000000000000000000000000000000000000000000000000815260040161039790611718565b60405180910390fd5b8060066000600554815260200190815260200160002060020181905550600160066000600554815260200190815260200160002060030160006101000a81548160ff0219169083151502179055506000600760006005548152602001908152602001600020600083815260200190815260200160002080549050905060008082111561044d57816006600060055481526020019081526020016000206001015461044a9190611796565b90505b7f23ca5cac60a8f842163de3b3e3a7c64f11766caff6fc2b1b71c5a59405c4ea7c60055484848460405161048494939291906117c7565b60405180910390a16000600160055461049d919061180c565b9050806006600083815260200190815260200160002060000181905550600083036104f6576006600060055481526020019081526020016000206001015460066000838152602001908152602001600020600101819055505b8060058190555050505050565b61050b611195565b60066000600554815260200190815260200160002060030160009054906101000a900460ff1615610571576040517f08c379a00000000000000000000000000000000000000000000000000000000081526004016105689061188c565b60405180910390fd5b600260009054906101000a900473ffffffffffffffffffffffffffffffffffffffff1673ffffffffffffffffffffffffffffffffffffffff166323b872dd3330674563918244f400006040518463ffffffff1660e01b81526004016105d8939291906118ac565b6020604051808303816000875af11580156105f7573d6000803e3d6000fd5b505050506040513d601f19601f8201168201806040525081019061061b919061190f565b61065a576040517f08c379a000000000000000000000000000000000000000000000000000000000815260040161065190611988565b60405180910390fd5b600060646014674563918244f4000061067391906119a8565b61067d9190611796565b9050600081674563918244f4000061069591906119ea565b9050600260009054906101000a900473ffffffffffffffffffffffffffffffffffffffff1673ffffffffffffffffffffffffffffffffffffffff1663a9059cbb600360009054906101000a900473ffffffffffffffffffffffffffffffffffffffff166002856107059190611796565b6040518363ffffffff1660e01b8152600401610722929190611a1e565b6020604051808303816000875af1158015610741573d6000803e3d6000fd5b505050506040513d601f19601f82011682018060405250810190610765919061190f565b50600260009054906101000a900473ffffffffffffffffffffffffffffffffffffffff1673ffffffffffffffffffffffffffffffffffffffff1663a9059cbb600460009054906101000a900473ffffffffffffffffffffffffffffffffffffffff166002856107d49190611796565b856107df91906119ea565b6040518363ffffffff1660e01b81526004016107fc929190611a1e565b6020604051808303816000875af115801561081b573d6000803e3d6000fd5b505050506040513d601f19601f8201168201806040525081019061083f919061190f565b50806006600060055481526020019081526020016000206001016000828254610868919061180c565b925050819055506007600060055481526020019081526020016000206000848152602001908152602001600020339080600181540180825580915050600190039060005260206000200160009091909190916101000a81548173ffffffffffffffffffffffffffffffffffffffff021916908373ffffffffffffffffffffffffffffffffffffffff16021790555060086000600554815260200190815260200160002060003373ffffffffffffffffffffffffffffffffffffffff1673ffffffffffffffffffffffffffffffffffffffff1681526020019081526020016000208390806001815401808255809150506001900390600052602060002001600090919091909150553373ffffffffffffffffffffffffffffffffffffffff167f97fac0ce6558f4accbb4696915809c0ef7023ffe7ba9454e94d49fb652aae1d5600554856040516109b9929190611a47565b60405180910390a250506109cb6111e4565b50565b6109d6611117565b6109e060006111ed565b565b60076020528260005260406000206020528160005260406000208181548110610a0a57600080fd5b90600052602060002001600092509250509054906101000a900473ffffffffffffffffffffffffffffffffffffffff1681565b60096020528160005260406000206020528060005260406000206000915091509054906101000a900460ff1681565b60066020528060005260406000206000915090508060000154908060010154908060020154908060030160009054906101000a900460ff16905084565b60008060009054906101000a900473ffffffffffffffffffffffffffffffffffffffff16905090565b600360009054906101000a900473ffffffffffffffffffffffffffffffffffffffff1681565b60055481565b600260009054906101000a900473ffffffffffffffffffffffffffffffffffffffff1681565b60086020528260005260406000206020528160005260406000208181548110610b4c57600080fd5b9060005260206000200160009250925050505481565b610b6a611195565b6006600082815260200190815260200160002060030160009054906101000a900460ff16610bcd576040517f08c379a0000000000000000000000000000000000000000000000000000000008152600401610bc490611abc565b60405180910390fd5b6009600082815260200190815260200160002060003373ffffffffffffffffffffffffffffffffffffffff1673ffffffffffffffffffffffffffffffffffffffff16815260200190815260200160002060009054906101000a900460ff1615610c6b576040517f08c379a0000000000000000000000000000000000000000000000000000000008152600401610c6290611b28565b60405180910390fd5b600060066000838152602001908152602001600020600201549050600060076000848152602001908152602001600020600083815260200190815260200160002080549050905060008111610cf5576040517f08c379a0000000000000000000000000000000000000000000000000000000008152600401610cec90611b94565b60405180910390fd5b6000806008600086815260200190815260200160002060003373ffffffffffffffffffffffffffffffffffffffff1673ffffffffffffffffffffffffffffffffffffffff168152602001908152602001600020805480602002602001604051908101604052809291908181526020018280548015610d9257602002820191906000526020600020905b815481526020019060010190808311610d7e575b5050505050905060005b8151811015610de85784828281518110610db957610db8611bb4565b5b602002602001015103610dd5578280610dd190611be3565b9350505b8080610de090611be3565b915050610d9c565b5060008211610e2c576040517f08c379a0000000000000000000000000000000000000000000000000000000008152600401610e2390611c77565b60405180910390fd5b600082846006600089815260200190815260200160002060010154610e519190611796565b610e5b91906119a8565b905060016009600088815260200190815260200160002060003373ffffffffffffffffffffffffffffffffffffffff1673ffffffffffffffffffffffffffffffffffffffff16815260200190815260200160002060006101000a81548160ff021916908315150217905550600260009054906101000a900473ffffffffffffffffffffffffffffffffffffffff1673ffffffffffffffffffffffffffffffffffffffff1663a9059cbb33836040518363ffffffff1660e01b8152600401610f23929190611a1e565b6020604051808303816000875af1158015610f42573d6000803e3d6000fd5b505050506040513d601f19601f82011682018060405250810190610f66919061190f565b503373ffffffffffffffffffffffffffffffffffffffff167f95681e512bc0fe659e195e06c283eada494316f3d801213e48e7101af92bf77082604051610fad91906112d2565b60405180910390a25050505050610fc26111e4565b50565b600460009054906101000a900473ffffffffffffffffffffffffffffffffffffffff1681565b60606008600084815260200190815260200160002060008373ffffffffffffffffffffffffffffffffffffffff1673ffffffffffffffffffffffffffffffffffffffff16815260200190815260200160002080548060200260200160405190810160405280929190818152602001828054801561108757602002820191906000526020600020905b815481526020019060010190808311611073575b5050505050905092915050565b61109c611117565b600073ffffffffffffffffffffffffffffffffffffffff168173ffffffffffffffffffffffffffffffffffffffff160361110b576040517f08c379a000000000000000000000000000000000000000000000000000000000815260040161110290611d09565b60405180910390fd5b611114816111ed565b50565b61111f6112b1565b73ffffffffffffffffffffffffffffffffffffffff1661113d610aa9565b73ffffffffffffffffffffffffffffffffffffffff1614611193576040517f08c379a000000000000000000000000000000000000000000000000000000000815260040161118a90611d75565b60405180910390fd5b565b6002600154036111da576040517f08c379a00000000000000000000000000000000000000000000000000000000081526004016111d190611de1565b60405180910390fd5b6002600181905550565b60018081905550565b60008060009054906101000a900473ffffffffffffffffffffffffffffffffffffffff169050816000806101000a81548173ffffffffffffffffffffffffffffffffffffffff021916908373ffffffffffffffffffffffffffffffffffffffff1602179055508173ffffffffffffffffffffffffffffffffffffffff168173ffffffffffffffffffffffffffffffffffffffff167f8be0079c531659141344cd1fd0a4f28419497f9722a3daafe3b4186f6b6457e060405160405180910390a35050565b600033905090565b6000819050919050565b6112cc816112b9565b82525050565b60006020820190506112e760008301846112c3565b92915050565b600080fd5b6112fb816112b9565b811461130657600080fd5b50565b600081359050611318816112f2565b92915050565b600060208284031215611334576113336112ed565b5b600061134284828501611309565b91505092915050565b600080600060608486031215611364576113636112ed565b5b600061137286828701611309565b935050602061138386828701611309565b925050604061139486828701611309565b9150509250925092565b600073ffffffffffffffffffffffffffffffffffffffff82169050919050565b60006113c98261139e565b9050919050565b6113d9816113be565b82525050565b60006020820190506113f460008301846113d0565b92915050565b611403816113be565b811461140e57600080fd5b50565b600081359050611420816113fa565b92915050565b6000806040838503121561143d5761143c6112ed565b5b600061144b85828601611309565b925050602061145c85828601611411565b9150509250929050565b60008115159050919050565b61147b81611466565b82525050565b60006020820190506114966000830184611472565b92915050565b60006080820190506114b160008301876112c3565b6114be60208301866112c3565b6114cb60408301856112c3565b6114d86060830184611472565b95945050505050565b6000819050919050565b60006115066115016114fc8461139e565b6114e1565b61139e565b9050919050565b6000611518826114eb565b9050919050565b600061152a8261150d565b9050919050565b61153a8161151f565b82525050565b60006020820190506115556000830184611531565b92915050565b600080600060608486031215611574576115736112ed565b5b600061158286828701611309565b935050602061159386828701611411565b92505060406115a486828701611309565b9150509250925092565b600081519050919050565b600082825260208201905092915050565b6000819050602082019050919050565b6115e3816112b9565b82525050565b60006115f583836115da565b60208301905092915050565b6000602082019050919050565b6000611619826115ae565b61162381856115b9565b935061162e836115ca565b8060005b8381101561165f57815161164688826115e9565b975061165183611601565b925050600181019050611632565b5085935050505092915050565b60006020820190508181036000830152611686818461160e565b905092915050565b6000602082840312156116a4576116a36112ed565b5b60006116b284828501611411565b91505092915050565b600082825260208201905092915050565b7f416c726561647920647261776e00000000000000000000000000000000000000600082015250565b6000611702600d836116bb565b915061170d826116cc565b602082019050919050565b60006020820190508181036000830152611731816116f5565b9050919050565b7f4e487b7100000000000000000000000000000000000000000000000000000000600052601260045260246000fd5b7f4e487b7100000000000000000000000000000000000000000000000000000000600052601160045260246000fd5b60006117a1826112b9565b91506117ac836112b9565b9250826117bc576117bb611738565b5b828204905092915050565b60006080820190506117dc60008301876112c3565b6117e960208301866112c3565b6117f660408301856112c3565b61180360608301846112c3565b95945050505050565b6000611817826112b9565b9150611822836112b9565b925082820190508082111561183a57611839611767565b5b92915050565b7f526f756e6420656e646564000000000000000000000000000000000000000000600082015250565b6000611876600b836116bb565b915061188182611840565b602082019050919050565b600060208201905081810360008301526118a581611869565b9050919050565b60006060820190506118c160008301866113d0565b6118ce60208301856113d0565b6118db60408301846112c3565b949350505050565b6118ec81611466565b81146118f757600080fd5b50565b600081519050611909816118e3565b92915050565b600060208284031215611925576119246112ed565b5b6000611933848285016118fa565b91505092915050565b7f5472616e73666572206661696c65640000000000000000000000000000000000600082015250565b6000611972600f836116bb565b915061197d8261193c565b602082019050919050565b600060208201905081810360008301526119a181611965565b9050919050565b60006119b3826112b9565b91506119be836112b9565b92508282026119cc816112b9565b915082820484148315176119e3576119e2611767565b5b5092915050565b60006119f5826112b9565b9150611a00836112b9565b9250828203905081811115611a1857611a17611767565b5b92915050565b6000604082019050611a3360008301856113d0565b611a4060208301846112c3565b9392505050565b6000604082019050611a5c60008301856112c3565b611a6960208301846112c3565b9392505050565b7f4e6f7420647261776e0000000000000000000000000000000000000000000000600082015250565b6000611aa66009836116bb565b9150611ab182611a70565b602082019050919050565b60006020820190508181036000830152611ad581611a99565b9050919050565b7f436c61696d656400000000000000000000000000000000000000000000000000600082015250565b6000611b126007836116bb565b9150611b1d82611adc565b602082019050919050565b60006020820190508181036000830152611b4181611b05565b9050919050565b7f4e6f2077696e6e65727300000000000000000000000000000000000000000000600082015250565b6000611b7e600a836116bb565b9150611b8982611b48565b602082019050919050565b60006020820190508181036000830152611bad81611b71565b9050919050565b7f4e487b7100000000000000000000000000000000000000000000000000000000600052603260045260246000fd5b6000611bee826112b9565b91507fffffffffffffffffffffffffffffffffffffffffffffffffffffffffffffffff8203611c2057611c1f611767565b5b600182019050919050565b7f4e6f742077696e6e657200000000000000000000000000000000000000000000600082015250565b6000611c61600a836116bb565b9150611c6c82611c2b565b602082019050919050565b60006020820190508181036000830152611c9081611c54565b9050919050565b7f4f776e61626c653a206e6577206f776e657220697320746865207a65726f206160008201527f6464726573730000000000000000000000000000000000000000000000000000602082015250565b6000611cf36026836116bb565b9150611cfe82611c97565b604082019050919050565b60006020820190508181036000830152611d2281611ce6565b9050919050565b7f4f776e61626c653a2063616c6c6572206973206e6f7420746865206f776e6572600082015250565b6000611d5f6020836116bb565b9150611d6a82611d29565b602082019050919050565b60006020820190508181036000830152611d8e81611d52565b9050919050565b7f5265656e7472616e637947756172643a207265656e7472616e742063616c6c00600082015250565b6000611dcb601f836116bb565b9150611dd682611d95565b602082019050919050565b60006020820190508181036000830152611dfa81611dbe565b905091905056fea26469706673582212203ac0d7a028b9c2be7c705f1919ca634c9c9bf265dc9050b4e97ec3074b91bc8864736f6c63430008130033",
  "linkReferences": {},
  "deployedLinkReferences": {}
}