{
  "_format": "hh-sol-artifact-1",
  "contractName": "SpaceLottoSimple",
  "sourceName": "contracts/SpaceLottoSimple.sol",
  "abi": [
    {
      "inputs": [
        {
          "internalType": "address",
          "name": "_usdtAddress",
          "type": "address"
        },
        {
          "internalType": "address",
          "name": "_devWallet",
          "type": "address"
        },
        {
          "internalType": "address",
          "name": "_reserveWallet",
          "type": "address"
        }
      ],
      "stateMutability": "nonpayable",
      "type": "constructor"
    },
    {
      "anonymous": false,
      "inputs": [
        {
          "indexed": true,
          "internalType": "address",
          "name": "previousOwner",
          "type": "address"
        },
        {
          "indexed": true,
          "internalType": "address",
          "name": "newOwner",
          "type": "address"
        }
      ],
      "name": "OwnershipTransferred",
      "type": "event"
    },
    {
      "anonymous": false,
      "inputs": [
        {
          "indexed": true,
          "internalType": "address",
          "name": "winner",
          "type": "address"
        },
        {
          "indexed": false,
          "internalType": "uint256",
          "name": "amount",
          "type": "uint256"
        }
      ],
      "name": "PrizeClaimed",
      "type": "event"
    },
    {
      "anonymous": false,
      "inputs": [
        {
          "indexed": true,
          "internalType": "address",
          "name": "referrer",
          "type": "address"
        },
        {
          "indexed": true,
          "internalType": "address",
          "name": "buyer",
          "type": "address"
        },
        {
          "indexed": false,
          "internalType": "uint256",
          "name": "amount",
          "type": "uint256"
        }
      ],
      "name": "ReferralReward",
      "type": "event"
    },
    {
      "anonymous": false,
      "inputs": [
        {
          "indexed": true,
          "internalType": "address",
          "name": "player",
          "type": "address"
        },
        {
          "indexed": false,
          "internalType": "uint256",
          "name": "roundId",
          "type": "uint256"
        },
        {
          "indexed": false,
          "internalType": "uint256",
          "name": "chosenNumber",
          "type": "uint256"
        }
      ],
      "name": "TicketBought",
      "type": "event"
    },
    {
      "anonymous": false,
      "inputs": [
        {
          "indexed": false,
          "internalType": "uint256",
          "name": "roundId",
          "type": "uint256"
        },
        {
          "indexed": false,
          "internalType": "uint256",
          "name": "winningNumber",
          "type": "uint256"
        },
        {
          "indexed": false,
          "internalType": "uint256",
          "name": "winnerCount",
          "type": "uint256"
        },
        {
          "indexed": false,
          "internalType": "uint256",
          "name": "prizePerWinner",
          "type": "uint256"
        }
      ],
      "name": "WinnerDrawn",
      "type": "event"
    },
    {
      "inputs": [],
      "name": "TICKET_PRICE",
      "outputs": [
        {
          "internalType": "uint256",
          "name": "",
          "type": "uint256"
        }
      ],
      "stateMutability": "view",
      "type": "function"
    },
    {
      "inputs": [
        {
          "internalType": "uint256",
          "name": "_chosenNumber",
          "type": "uint256"
        },
        {
          "internalType": "address",
          "name": "_referrer",
          "type": "address"
        }
      ],
      "name": "buyTicket",
      "outputs": [],
      "stateMutability": "nonpayable",
      "type": "function"
    },
    {
      "inputs": [
        {
          "internalType": "uint256[]",
          "name": "_chosenNumbers",
          "type": "uint256[]"
        },
        {
          "internalType": "address",
          "name": "_referrer",
          "type": "address"
        }
      ],
      "name": "buyTickets",
      "outputs": [],
      "stateMutability": "nonpayable",
      "type": "function"
    },
    {
      "inputs": [
        {
          "internalType": "uint256",
          "name": "_roundId",
          "type": "uint256"
        }
      ],
      "name": "claimPrize",
      "outputs": [],
      "stateMutability": "nonpayable",
      "type": "function"
    },
    {
      "inputs": [],
      "name": "currentRoundId",
      "outputs": [
        {
          "internalType": "uint256",
          "name": "",
          "type": "uint256"
        }
      ],
      "stateMutability": "view",
      "type": "function"
    },
    {
      "inputs": [],
      "name": "devWallet",
      "outputs": [
        {
          "internalType": "address",
          "name": "",
          "type": "address"
        }
      ],
      "stateMutability": "view",
      "type": "function"
    },
    {
      "inputs": [
        {
          "internalType": "uint256",
          "name": "_winningNumber",
          "type": "uint256"
        }
      ],
      "name": "drawWinner",
      "outputs": [],
      "stateMutability": "nonpayable",
      "type": "function"
    },
    {
      "inputs": [
        {
          "internalType": "uint256",
          "name": "_roundId",
          "type": "uint256"
        },
        {
          "internalType": "address",
          "name": "_user",
          "type": "address"
        }
      ],
      "name": "getUserTickets",
      "outputs": [
        {
          "internalType": "uint256[]",
          "name": "",
          "type": "uint256[]"
        }
      ],
      "stateMutability": "view",
      "type": "function"
    },
    {
      "inputs": [
        {
          "internalType": "uint256",
          "name": "",
          "type": "uint256"
        },
        {
          "internalType": "address",
          "name": "",
          "type": "address"
        }
      ],
      "name": "hasClaimed",
      "outputs": [
        {
          "internalType": "bool",
          "name": "",
          "type": "bool"
        }
      ],
      "stateMutability": "view",
      "type": "function"
    },
    {
      "inputs": [],
      "name": "owner",
      "outputs": [
        {
          "internalType": "address",
          "name": "",
          "type": "address"
        }
      ],
      "stateMutability": "view",
      "type": "function"
    },
    {
      "inputs": [
        {
          "internalType": "address",
          "name": "",
          "type": "address"
        }
      ],
      "name": "referralCount",
      "outputs": [
        {
          "internalType": "uint256",
          "name": "",
          "type": "uint256"
        }
      ],
      "stateMutability": "view",
      "type": "function"
    },
    {
      "inputs": [
        {
          "internalType": "address",
          "name": "",
          "type": "address"
        }
      ],
      "name": "referralEarnings",
      "outputs": [
        {
          "internalType": "uint256",
          "name": "",
          "type": "uint256"
        }
      ],
      "stateMutability": "view",
      "type": "function"
    },
    {
      "inputs": [
        {
          "internalType": "uint256",
          "name": "",
          "type": "uint256"
        },
        {
          "internalType": "address",
          "name": "",
          "type": "address"
        }
      ],
      "name": "referralEarningsByRound",
      "outputs": [
        {
          "internalType": "uint256",
          "name": "",
          "type": "uint256"
        }
      ],
      "stateMutability": "view",
      "type": "function"
    },
    {
      "inputs": [
        {
          "internalType": "address",
          "name": "",
          "type": "address"
        }
      ],
      "name": "referrers",
      "outputs": [
        {
          "internalType": "address",
          "name": "",
          "type": "address"
        }
      ],
      "stateMutability": "view",
      "type": "function"
    },
    {
      "inputs": [],
      "name": "renounceOwnership",
      "outputs": [],
      "stateMutability": "nonpayable",
      "type": "function"
    },
    {
      "inputs": [],
      "name": "reserveWallet",
      "outputs": [
        {
          "internalType": "address",
          "name": "",
          "type": "address"
        }
      ],
      "stateMutability": "view",
      "type": "function"
    },
    {
      "inputs": [
        {
          "internalType": "uint256",
          "name": "",
          "type": "uint256"
        }
      ],
      "name": "rounds",
      "outputs": [
        {
          "internalType": "uint256",
          "name": "id",
          "type": "uint256"
        },
        {
          "internalType": "uint256",
          "name": "prizePool",
          "type": "uint256"
        },
        {
          "internalType": "uint256",
          "name": "winningNumber",
          "type": "uint256"
        },
        {
          "internalType": "bool",
          "name": "isDrawn",
          "type": "bool"
        }
      ],
      "stateMutability": "view",
      "type": "function"
    },
    {
      "inputs": [
        {
          "internalType": "uint256",
          "name": "",
          "type": "uint256"
        },
        {
          "internalType": "uint256",
          "name": "",
          "type": "uint256"
        },
        {
          "internalType": "uint256",
          "name": "",
          "type": "uint256"
        }
      ],
      "name": "tickets",
      "outputs": [
        {
          "internalType": "address",
          "name": "",
          "type": "address"
        }
      ],
      "stateMutability": "view",
      "type": "function"
    },
    {
      "inputs": [
        {
          "internalType": "address",
          "name": "newOwner",
          "type": "address"
        }
      ],
      "name": "transferOwnership",
      "outputs": [],
      "stateMutability": "nonpayable",
      "type": "function"
    },
    {
      "inputs": [],
      "name": "usdtToken",
      "outputs": [
        {
          "internalType": "contract IERC20",
          "name": "",
          "type": "address"
        }
      ],
      "stateMutability": "view",
      "type": "function"
    },
    {
      "inputs": [
        {
          "internalType": "uint256",
          "name": "",
          "type": "uint256"
        },
        {
          "internalType": "address",
          "name": "",
          "type": "address"
        },
        {
          "internalType": "uint256",
          "name": "",
          "type": "uint256"
        }
      ],
      "name": "userTickets",
      "outputs": [
        {
          "internalType": "uint256",
          "name": "",
          "type": "uint256"
        }
      ],
      "stateMutability": "view",
      "type": "function"
    }
  ],
  "bytecode": "0x60806040523480156200001157600080fd5b5060405162002b3538038062002b35833981810160405281019062000037919062000286565b620000576200004b6200015060201b60201c565b6200015860201b60201c565b6001808190555082600260006101000a81548173ffffffffffffffffffffffffffffffffffffffff021916908373ffffffffffffffffffffffffffffffffffffffff16021790555081600360006101000a81548173ffffffffffffffffffffffffffffffffffffffff021916908373ffffffffffffffffffffffffffffffffffffffff16021790555080600460006101000a81548173ffffffffffffffffffffffffffffffffffffffff021916908373ffffffffffffffffffffffffffffffffffffffff1602179055506001600581905550600160066000600554815260200190815260200160002060000181905550505050620002e2565b600033905090565b60008060009054906101000a900473ffffffffffffffffffffffffffffffffffffffff169050816000806101000a81548173ffffffffffffffffffffffffffffffffffffffff021916908373ffffffffffffffffffffffffffffffffffffffff1602179055508173ffffffffffffffffffffffffffffffffffffffff168173ffffffffffffffffffffffffffffffffffffffff167f8be0079c531659141344cd1fd0a4f28419497f9722a3daafe3b4186f6b6457e060405160405180910390a35050565b600080fd5b600073ffffffffffffffffffffffffffffffffffffffff82169050919050565b60006200024e8262000221565b9050919050565b620002608162000241565b81146200026c57600080fd5b50565b600081519050620002808162000255565b92915050565b600080600060608486031215620002a257620002a16200021c565b5b6000620002b2868287016200026f565b9350506020620002c5868287016200026f565b9250506040620002d8868287016200026f565b9150509250925092565b61284380620002f26000396000f3fe608060405234801561001057600080fd5b50600436106101375760003560e01c80638da5cb5b116100b8578063c07b528a1161007c578063c07b528a14610353578063d709815414610383578063d72b11bd1461039f578063db74559b146103bd578063e7a7f65c146103ed578063f2fde38b1461041d57610137565b80638da5cb5b146102ab5780638ea5220f146102c95780639cbe5efd146102e7578063a98ad46c14610305578063b858bb651461032357610137565b8063715018a6116100ff578063715018a6146101de57806373c690b3146101e857806377d1d0c514610218578063873f6f9e146102485780638c65c81f1461027857610137565b80631a95f15f1461013c5780633b0c3a7c1461015a5780634a3b68cc1461017657806360b2a56a146101a657806362a845ec146101c2575b600080fd5b610144610439565b6040516101519190611b3c565b60405180910390f35b610174600480360381019061016f9190611c24565b610445565b005b610190600480360381019061018b9190611c84565b61062c565b60405161019d9190611cc0565b60405180910390f35b6101c060048036038101906101bb9190611d07565b61065f565b005b6101dc60048036038101906101d79190611d34565b610830565b005b6101e661084f565b005b61020260048036038101906101fd9190611d74565b610863565b60405161020f9190611cc0565b60405180910390f35b610232600480360381019061022d9190611d34565b6108be565b60405161023f9190611b3c565b60405180910390f35b610262600480360381019061025d9190611d34565b6108e3565b60405161026f9190611de2565b60405180910390f35b610292600480360381019061028d9190611d07565b610912565b6040516102a29493929190611dfd565b60405180910390f35b6102b361094f565b6040516102c09190611cc0565b60405180910390f35b6102d1610978565b6040516102de9190611cc0565b60405180910390f35b6102ef61099e565b6040516102fc9190611b3c565b60405180910390f35b61030d6109a4565b60405161031a9190611ea1565b60405180910390f35b61033d60048036038101906103389190611ebc565b6109ca565b60405161034a9190611b3c565b60405180910390f35b61036d60048036038101906103689190611c84565b610a08565b60405161037a9190611b3c565b60405180910390f35b61039d60048036038101906103989190611d07565b610a20565b005b6103a7610e83565b6040516103b49190611cc0565b60405180910390f35b6103d760048036038101906103d29190611c84565b610ea9565b6040516103e49190611b3c565b60405180910390f35b61040760048036038101906104029190611d34565b610ec1565b6040516104149190611fcd565b60405180910390f35b61043760048036038101906104329190611c84565b610f6a565b005b674563918244f4000081565b61044d610fed565b60008383905011610493576040517f08c379a000000000000000000000000000000000000000000000000000000000815260040161048a9061204c565b60405180910390fd5b60328383905011156104da576040517f08c379a00000000000000000000000000000000000000000000000000000000081526004016104d1906120b8565b60405180910390fd5b600083839050674563918244f400006104f39190612107565b9050600260009054906101000a900473ffffffffffffffffffffffffffffffffffffffff1673ffffffffffffffffffffffffffffffffffffffff166323b872dd3330846040518463ffffffff1660e01b815260040161055493929190612149565b6020604051808303816000875af1158015610573573d6000803e3d6000fd5b505050506040513d601f19601f8201168201806040525081019061059791906121ac565b6105d6576040517f08c379a00000000000000000000000000000000000000000000000000000000081526004016105cd90612225565b60405180910390fd5b60005b8484905081101561061d5761060a338686848181106105fb576105fa612245565b5b9050602002013585600161103c565b808061061590612274565b9150506105d9565b505061062761186f565b505050565b60076020528060005260406000206000915054906101000a900473ffffffffffffffffffffffffffffffffffffffff1681565b610667611878565b60066000600554815260200190815260200160002060030160009054906101000a900460ff16156106cd576040517f08c379a00000000000000000000000000000000000000000000000000000000081526004016106c490612308565b60405180910390fd5b8060066000600554815260200190815260200160002060020181905550600160066000600554815260200190815260200160002060030160006101000a81548160ff0219169083151502179055506000600b60006005548152602001908152602001600020600083815260200190815260200160002080549050905060008082111561077a5781600660006005548152602001908152602001600020600101546107779190612357565b90505b7f23ca5cac60a8f842163de3b3e3a7c64f11766caff6fc2b1b71c5a59405c4ea7c6005548484846040516107b19493929190612388565b60405180910390a1600060016005546107ca91906123cd565b905080600660008381526020019081526020016000206000018190555060008303610823576006600060055481526020019081526020016000206001015460066000838152602001908152602001600020600101819055505b8060058190555050505050565b610838610fed565b6108433383836118f6565b61084b61186f565b5050565b610857611878565b6108616000611a57565b565b600b602052826000526040600020602052816000526040600020818154811061088b57600080fd5b90600052602060002001600092509250509054906101000a900473ffffffffffffffffffffffffffffffffffffffff1681565b6009602052816000526040600020602052806000526040600020600091509150505481565b600d6020528160005260406000206020528060005260406000206000915091509054906101000a900460ff1681565b60066020528060005260406000206000915090508060000154908060010154908060020154908060030160009054906101000a900460ff16905084565b60008060009054906101000a900473ffffffffffffffffffffffffffffffffffffffff16905090565b600360009054906101000a900473ffffffffffffffffffffffffffffffffffffffff1681565b60055481565b600260009054906101000a900473ffffffffffffffffffffffffffffffffffffffff1681565b600c60205282600052604060002060205281600052604060002081815481106109f257600080fd5b9060005260206000200160009250925050505481565b60086020528060005260406000206000915090505481565b610a28610fed565b6006600082815260200190815260200160002060030160009054906101000a900460ff16610a8b576040517f08c379a0000000000000000000000000000000000000000000000000000000008152600401610a829061244d565b60405180910390fd5b600d600082815260200190815260200160002060003373ffffffffffffffffffffffffffffffffffffffff1673ffffffffffffffffffffffffffffffffffffffff16815260200190815260200160002060009054906101000a900460ff1615610b29576040517f08c379a0000000000000000000000000000000000000000000000000000000008152600401610b20906124b9565b60405180910390fd5b6000600660008381526020019081526020016000206002015490506000600b6000848152602001908152602001600020600083815260200190815260200160002080549050905060008111610bb3576040517f08c379a0000000000000000000000000000000000000000000000000000000008152600401610baa90612525565b60405180910390fd5b600080600c600086815260200190815260200160002060003373ffffffffffffffffffffffffffffffffffffffff1673ffffffffffffffffffffffffffffffffffffffff168152602001908152602001600020805480602002602001604051908101604052809291908181526020018280548015610c5057602002820191906000526020600020905b815481526020019060010190808311610c3c575b5050505050905060005b8151811015610ca65784828281518110610c7757610c76612245565b5b602002602001015103610c93578280610c8f90612274565b9350505b8080610c9e90612274565b915050610c5a565b5060008211610cea576040517f08c379a0000000000000000000000000000000000000000000000000000000008152600401610ce190612591565b60405180910390fd5b600082846006600089815260200190815260200160002060010154610d0f9190612357565b610d199190612107565b90506001600d600088815260200190815260200160002060003373ffffffffffffffffffffffffffffffffffffffff1673ffffffffffffffffffffffffffffffffffffffff16815260200190815260200160002060006101000a81548160ff021916908315150217905550600260009054906101000a900473ffffffffffffffffffffffffffffffffffffffff1673ffffffffffffffffffffffffffffffffffffffff1663a9059cbb33836040518363ffffffff1660e01b8152600401610de19291906125b1565b6020604051808303816000875af1158015610e00573d6000803e3d6000fd5b505050506040513d601f19601f82011682018060405250810190610e2491906121ac565b503373ffffffffffffffffffffffffffffffffffffffff167f95681e512bc0fe659e195e06c283eada494316f3d801213e48e7101af92bf77082604051610e6b9190611b3c565b60405180910390a25050505050610e8061186f565b50565b600460009054906101000a900473ffffffffffffffffffffffffffffffffffffffff1681565b600a6020528060005260406000206000915090505481565b6060600c600084815260200190815260200160002060008373ffffffffffffffffffffffffffffffffffffffff1673ffffffffffffffffffffffffffffffffffffffff168152602001908152602001600020805480602002602001604051908101604052809291908181526020018280548015610f5d57602002820191906000526020600020905b815481526020019060010190808311610f49575b5050505050905092915050565b610f72611878565b600073ffffffffffffffffffffffffffffffffffffffff168173ffffffffffffffffffffffffffffffffffffffff1603610fe1576040517f08c379a0000000000000000000000000000000000000000000000000000000008152600401610fd89061264c565b60405180910390fd5b610fea81611a57565b50565b600260015403611032576040517f08c379a0000000000000000000000000000000000000000000000000000000008152600401611029906126b8565b60405180910390fd5b6002600181905550565b60066000600554815260200190815260200160002060030160009054906101000a900460ff16156110a2576040517f08c379a000000000000000000000000000000000000000000000000000000000815260040161109990612724565b60405180910390fd5b600073ffffffffffffffffffffffffffffffffffffffff16600760008673ffffffffffffffffffffffffffffffffffffffff1673ffffffffffffffffffffffffffffffffffffffff16815260200190815260200160002060009054906101000a900473ffffffffffffffffffffffffffffffffffffffff1673ffffffffffffffffffffffffffffffffffffffff1614801561116957508373ffffffffffffffffffffffffffffffffffffffff168273ffffffffffffffffffffffffffffffffffffffff1614155b80156111a25750600073ffffffffffffffffffffffffffffffffffffffff168273ffffffffffffffffffffffffffffffffffffffff1614155b1561127b5781600760008673ffffffffffffffffffffffffffffffffffffffff1673ffffffffffffffffffffffffffffffffffffffff16815260200190815260200160002060006101000a81548173ffffffffffffffffffffffffffffffffffffffff021916908373ffffffffffffffffffffffffffffffffffffffff160217905550600a60008373ffffffffffffffffffffffffffffffffffffffff1673ffffffffffffffffffffffffffffffffffffffff168152602001908152602001600020600081548092919061127590612274565b91905055505b600060646014674563918244f400006112949190612107565b61129e9190612357565b9050600081674563918244f400006112b69190612744565b90506000600760008873ffffffffffffffffffffffffffffffffffffffff1673ffffffffffffffffffffffffffffffffffffffff16815260200190815260200160002060009054906101000a900473ffffffffffffffffffffffffffffffffffffffff1690506000839050600073ffffffffffffffffffffffffffffffffffffffff168273ffffffffffffffffffffffffffffffffffffffff161461153b5760006002856113649190612357565b905080856113729190612744565b9150600260009054906101000a900473ffffffffffffffffffffffffffffffffffffffff1673ffffffffffffffffffffffffffffffffffffffff1663a9059cbb84836040518363ffffffff1660e01b81526004016113d19291906125b1565b6020604051808303816000875af11580156113f0573d6000803e3d6000fd5b505050506040513d601f19601f8201168201806040525081019061141491906121ac565b5080600860008573ffffffffffffffffffffffffffffffffffffffff1673ffffffffffffffffffffffffffffffffffffffff168152602001908152602001600020600082825461146491906123cd565b925050819055508060096000600554815260200190815260200160002060008573ffffffffffffffffffffffffffffffffffffffff1673ffffffffffffffffffffffffffffffffffffffff16815260200190815260200160002060008282546114cd91906123cd565b925050819055508873ffffffffffffffffffffffffffffffffffffffff168373ffffffffffffffffffffffffffffffffffffffff167f53958b9c644a1d5529da7c36929d59417eb9a996f08e02a52632bfe20c92ef48836040516115319190611b3c565b60405180910390a3505b600260009054906101000a900473ffffffffffffffffffffffffffffffffffffffff1673ffffffffffffffffffffffffffffffffffffffff1663a9059cbb600360009054906101000a900473ffffffffffffffffffffffffffffffffffffffff166002846115a99190612357565b6040518363ffffffff1660e01b81526004016115c69291906125b1565b6020604051808303816000875af11580156115e5573d6000803e3d6000fd5b505050506040513d601f19601f8201168201806040525081019061160991906121ac565b50600260009054906101000a900473ffffffffffffffffffffffffffffffffffffffff1673ffffffffffffffffffffffffffffffffffffffff1663a9059cbb600460009054906101000a900473ffffffffffffffffffffffffffffffffffffffff166002846116789190612357565b846116839190612744565b6040518363ffffffff1660e01b81526004016116a09291906125b1565b6020604051808303816000875af11580156116bf573d6000803e3d6000fd5b505050506040513d601f19601f820116820180604052508101906116e391906121ac565b5082600660006005548152602001908152602001600020600101600082825461170c91906123cd565b92505081905550600b600060055481526020019081526020016000206000888152602001908152602001600020889080600181540180825580915050600190039060005260206000200160009091909190916101000a81548173ffffffffffffffffffffffffffffffffffffffff021916908373ffffffffffffffffffffffffffffffffffffffff160217905550600c6000600554815260200190815260200160002060008973ffffffffffffffffffffffffffffffffffffffff1673ffffffffffffffffffffffffffffffffffffffff1681526020019081526020016000208790806001815401808255809150506001900390600052602060002001600090919091909150558773ffffffffffffffffffffffffffffffffffffffff167f97fac0ce6558f4accbb4696915809c0ef7023ffe7ba9454e94d49fb652aae1d56005548960405161185d929190612778565b60405180910390a25050505050505050565b60018081905550565b611880611b1b565b73ffffffffffffffffffffffffffffffffffffffff1661189e61094f565b73ffffffffffffffffffffffffffffffffffffffff16146118f4576040517f08c379a00000000000000000000000000000000000000000000000000000000081526004016118eb906127ed565b60405180910390fd5b565b60066000600554815260200190815260200160002060030160009054906101000a900460ff161561195c576040517f08c379a000000000000000000000000000000000000000000000000000000000815260040161195390612724565b60405180910390fd5b600260009054906101000a900473ffffffffffffffffffffffffffffffffffffffff1673ffffffffffffffffffffffffffffffffffffffff166323b872dd8430674563918244f400006040518463ffffffff1660e01b81526004016119c393929190612149565b6020604051808303816000875af11580156119e2573d6000803e3d6000fd5b505050506040513d601f19601f82011682018060405250810190611a0691906121ac565b611a45576040517f08c379a0000000000000000000000000000000000000000000000000000000008152600401611a3c90612225565b60405180910390fd5b611a52838383600061103c565b505050565b60008060009054906101000a900473ffffffffffffffffffffffffffffffffffffffff169050816000806101000a81548173ffffffffffffffffffffffffffffffffffffffff021916908373ffffffffffffffffffffffffffffffffffffffff1602179055508173ffffffffffffffffffffffffffffffffffffffff168173ffffffffffffffffffffffffffffffffffffffff167f8be0079c531659141344cd1fd0a4f28419497f9722a3daafe3b4186f6b6457e060405160405180910390a35050565b600033905090565b6000819050919050565b611b3681611b23565b82525050565b6000602082019050611b516000830184611b2d565b92915050565b600080fd5b600080fd5b600080fd5b600080fd5b600080fd5b60008083601f840112611b8657611b85611b61565b5b8235905067ffffffffffffffff811115611ba357611ba2611b66565b5b602083019150836020820283011115611bbf57611bbe611b6b565b5b9250929050565b600073ffffffffffffffffffffffffffffffffffffffff82169050919050565b6000611bf182611bc6565b9050919050565b611c0181611be6565b8114611c0c57600080fd5b50565b600081359050611c1e81611bf8565b92915050565b600080600060408486031215611c3d57611c3c611b57565b5b600084013567ffffffffffffffff811115611c5b57611c5a611b5c565b5b611c6786828701611b70565b93509350506020611c7a86828701611c0f565b9150509250925092565b600060208284031215611c9a57611c99611b57565b5b6000611ca884828501611c0f565b91505092915050565b611cba81611be6565b82525050565b6000602082019050611cd56000830184611cb1565b92915050565b611ce481611b23565b8114611cef57600080fd5b50565b600081359050611d0181611cdb565b92915050565b600060208284031215611d1d57611d1c611b57565b5b6000611d2b84828501611cf2565b91505092915050565b60008060408385031215611d4b57611d4a611b57565b5b6000611d5985828601611cf2565b9250506020611d6a85828601611c0f565b9150509250929050565b600080600060608486031215611d8d57611d8c611b57565b5b6000611d9b86828701611cf2565b9350506020611dac86828701611cf2565b9250506040611dbd86828701611cf2565b9150509250925092565b60008115159050919050565b611ddc81611dc7565b82525050565b6000602082019050611df76000830184611dd3565b92915050565b6000608082019050611e126000830187611b2d565b611e1f6020830186611b2d565b611e2c6040830185611b2d565b611e396060830184611dd3565b95945050505050565b6000819050919050565b6000611e67611e62611e5d84611bc6565b611e42565b611bc6565b9050919050565b6000611e7982611e4c565b9050919050565b6000611e8b82611e6e565b9050919050565b611e9b81611e80565b82525050565b6000602082019050611eb66000830184611e92565b92915050565b600080600060608486031215611ed557611ed4611b57565b5b6000611ee386828701611cf2565b9350506020611ef486828701611c0f565b9250506040611f0586828701611cf2565b9150509250925092565b600081519050919050565b600082825260208201905092915050565b6000819050602082019050919050565b611f4481611b23565b82525050565b6000611f568383611f3b565b60208301905092915050565b6000602082019050919050565b6000611f7a82611f0f565b611f848185611f1a565b9350611f8f83611f2b565b8060005b83811015611fc0578151611fa78882611f4a565b9750611fb283611f62565b925050600181019050611f93565b5085935050505092915050565b60006020820190508181036000830152611fe78184611f6f565b905092915050565b600082825260208201905092915050565b7f4e6f207469636b65747300000000000000000000000000000000000000000000600082015250565b6000612036600a83611fef565b915061204182612000565b602082019050919050565b6000602082019050818103600083015261206581612029565b9050919050565b7f4d6178203530207469636b657473000000000000000000000000000000000000600082015250565b60006120a2600e83611fef565b91506120ad8261206c565b602082019050919050565b600060208201905081810360008301526120d181612095565b9050919050565b7f4e487b7100000000000000000000000000000000000000000000000000000000600052601160045260246000fd5b600061211282611b23565b915061211d83611b23565b925082820261212b81611b23565b91508282048414831517612142576121416120d8565b5b5092915050565b600060608201905061215e6000830186611cb1565b61216b6020830185611cb1565b6121786040830184611b2d565b949350505050565b61218981611dc7565b811461219457600080fd5b50565b6000815190506121a681612180565b92915050565b6000602082840312156121c2576121c1611b57565b5b60006121d084828501612197565b91505092915050565b7f5472616e73666572206661696c65640000000000000000000000000000000000600082015250565b600061220f600f83611fef565b915061221a826121d9565b602082019050919050565b6000602082019050818103600083015261223e81612202565b9050919050565b7f4e487b7100000000000000000000000000000000000000000000000000000000600052603260045260246000fd5b600061227f82611b23565b91507fffffffffffffffffffffffffffffffffffffffffffffffffffffffffffffffff82036122b1576122b06120d8565b5b600182019050919050565b7f416c726561647920647261776e00000000000000000000000000000000000000600082015250565b60006122f2600d83611fef565b91506122fd826122bc565b602082019050919050565b60006020820190508181036000830152612321816122e5565b9050919050565b7f4e487b7100000000000000000000000000000000000000000000000000000000600052601260045260246000fd5b600061236282611b23565b915061236d83611b23565b92508261237d5761237c612328565b5b828204905092915050565b600060808201905061239d6000830187611b2d565b6123aa6020830186611b2d565b6123b76040830185611b2d565b6123c46060830184611b2d565b95945050505050565b60006123d882611b23565b91506123e383611b23565b92508282019050808211156123fb576123fa6120d8565b5b92915050565b7f4e6f7420647261776e0000000000000000000000000000000000000000000000600082015250565b6000612437600983611fef565b915061244282612401565b602082019050919050565b600060208201905081810360008301526124668161242a565b9050919050565b7f436c61696d656400000000000000000000000000000000000000000000000000600082015250565b60006124a3600783611fef565b91506124ae8261246d565b602082019050919050565b600060208201905081810360008301526124d281612496565b9050919050565b7f4e6f2077696e6e65727300000000000000000000000000000000000000000000600082015250565b600061250f600a83611fef565b915061251a826124d9565b602082019050919050565b6000602082019050818103600083015261253e81612502565b9050919050565b7f4e6f742077696e6e657200000000000000000000000000000000000000000000600082015250565b600061257b600a83611fef565b915061258682612545565b602082019050919050565b600060208201905081810360008301526125aa8161256e565b9050919050565b60006040820190506125c66000830185611cb1565b6125d36020830184611b2d565b9392505050565b7f4f776e61626c653a206e6577206f776e657220697320746865207a65726f206160008201527f6464726573730000000000000000000000000000000000000000000000000000602082015250565b6000612636602683611fef565b9150612641826125da565b604082019050919050565b6000602082019050818103600083015261266581612629565b9050919050565b7f5265656e7472616e637947756172643a207265656e7472616e742063616c6c00600082015250565b60006126a2601f83611fef565b91506126ad8261266c565b602082019050919050565b600060208201905081810360008301526126d181612695565b9050919050565b7f526f756e6420656e646564000000000000000000000000000000000000000000600082015250565b600061270e600b83611fef565b9150612719826126d8565b602082019050919050565b6000602082019050818103600083015261273d81612701565b9050919050565b600061274f82611b23565b915061275a83611b23565b9250828203905081811115612772576127716120d8565b5b92915050565b600060408201905061278d6000830185611b2d565b61279a6020830184611b2d565b9392505050565b7f4f776e61626c653a2063616c6c6572206973206e6f7420746865206f776e6572600082015250565b60006127d7602083611fef565b91506127e2826127a1565b602082019050919050565b60006020820190508181036000830152612806816127ca565b905091905056fea2646970667358221220c7499332967fc9db4493a26f57af15ecf5fd2f80c9a65cd7c1404fe2c238504b64736f6c63430008130033",
  "linkReferences": {},
  "deployedLinkReferences": {}
}